:1000000073700430174100201301C12697C100000E
:100010009381813DEF70F022EF70305173600430B6
:10002000EF00807D73001000678000002320310006
:10003000232241002324510023266100232871003C
:10004000232AA100232CB100232EC1002320D1029A
:100050002322E1022324F102232601032328110392
:100060007325007BF325107B7326207B232AA102B6
:10007000232CB102232EC1027325407BF325507B34
:100080007326607B2320A1042322B1042324C1040E
:10009000732510342326A104F32500302328B1044E
:1000A0006780000083250105739005300325C10496
:1000B00073101534032501048325410403268104AC
:1000C0007310457B7390557B7310667B032541034A
:1000D000832581030326C1037310057B7390157B71
:1000E0007310267B832101000322410083228100BB
:1000F0000323C100832301010325410183258101DD
:100100000326C101832601020327410283278102BE
:100110000328C102832801038320410513018105BF
:1001200073002030130181FA232A1104EFF01FF02D
:100130009300400A732520346F70F01B130181FA7D
:10014000232A1104EFF09FEE9300400A6F00C002D3
:10015000130181FA232A1104EFF05FED9300400AA6
:100160006F00C001130181FA232A1104EFF01FEC84
:100170009300400A6F00C0006F0000006F00000095
:100180006F000000167800002A7800003E7800001A
:10019000527800003A7A00003A7A00003A7A000079
:1001A0003A7A0000CA780000B6780000667800004D
:1001B0003A7A000016110000DE780000F2780000A4
:1001C0007A7800008E7800001A7900003A7A0000F0
:1001D0003A7A00003A7A00003A7A00003A7A00004F
:1001E0003A7A00009A790000AE790000C2790000E6
:1001F000D6790000EA790000FE790000127A00004A
:10020000267A00003A7A00003A7A00003A7A000032
:100210003A7A00003A7A00003A7A00003A7A00000E
:100220003A7A00003A7A00003A7A00003A7A0000FE
:10023000A2780000067900003079000046790000BD
:100240003A7A00003A7A00003A7A00003A7A0000DE
:100250003A7A00003A7A00003A7A00003A7A0000CE
:100260003A7A00005C79000070790000847900001F
:100270003A7A00003A7A00003A7A00003A7A0000AE
:1002800073700430173100200321C135024102444C
:1002900092442249B249424AD24A624BF24B025C32
:1002A000925C225DB25D425ED25E625FF25F21616E
:1002B0005645731005304645731015341645A6454E
:1002C00036467310457B7390557B7310667B625581
:1002D000F25506467310057B7390157B7310267BD1
:1002E000824092412242B2424243D2436245F245A9
:1002F000025692562257B2574258D25813018105DE
:100300007360043073002030130181FA06C00EC2FE
:1003100012C416C61AC81ECA2ACC2ECE32D036D265
:100320003AD43ED642D846DA7325007BF325107BBB
:100330007326207B2ADC2EDEB2C07325407BF3259A
:10034000507B7326607BAAC2AEC4B2C6732510343C
:100350001105AAC873250030AACA9707002023A355
:1003600027CA174100201301E1F09702002083A261
:1003700062C9938202FC23A0820023A2920023A4DC
:10038000220123A6320123A8420123AA520123AC51
:10039000620123AE720123A0820323A2920323A44D
:1003A000A20323A6B20323A8C20323AAD20323AC29
:1003B000E20323AEF203173300200323A3222320FA
:1003C0005300EF2080789737002023AB072073700D
:1003D0000430173100200321E120024102449244FD
:1003E0002249B249424AD24A624BF24B025C925CC9
:1003F000225DB25D425ED25E625FF25F2161564570
:10040000731005304645731015341645A64536461B
:100410007310457B7390557B7310667B6255F25564
:1004200006467310057B7390157B7310267B824004
:1004300092412242B2424243D2436245F2450256C1
:1004400092562257B2574258D25813018105730071
:100450002030130181FA06C00EC212C416C61AC893
:100460001ECA2ACC2ECE32D036D23AD43ED642D86C
:1004700046DA7325007BF325107B7326207B2ADC6C
:100480002EDEB2C07325407BF325507B7326607B44
:10049000AAC2AEC4B2C673251034AAC873250030F0
:1004A000AACA173700200327671309EB9707002014
:1004B00023AA27B4174100201301C1DB0507973792
:1004C000002023ADE71073252034EF70C06217378A
:1004D00000200327A7107D179737002023A0E710DF
:1004E0005DE3173700200327A70F51CB9737002074
:1004F00023A8070E9702002083A2C2B0938202FCB9
:1005000023A0820023A2920023A4220123A6320169
:1005100023A8420123AA520123AC620123AE720137
:1005200023A0820323A2920323A4A20323A6B2033F
:1005300023A8C20323AAD20323ACE20323AEF2030F
:10054000173300200323030A23205300EF20E05F2A
:10055000173100200321010902410244924422493B
:10056000B249424AD24A624BF24B025C925C225D33
:10057000B25D425ED25E625FF25F216129A0170127
:100580000020032121A856457310053046457310FD
:1005900015341645A64536467310457B7390557B3A
:1005A0007310667B6255F25506467310057B739097
:1005B000157B7310267B824092412242B242424315
:1005C000D2436245F245025692562257B2574258DC
:1005D000D25813018105730020303D432A8763738D
:1005E000C3029377F700BDEFADE5937606FF3D8A32
:1005F000BA960CC34CC30CC74CC74107E36BD7FE7C
:1006000011E28280B306C3408A06970200009696E4
:100610006780A6002307B700A306B7002306B7002C
:10062000A305B7002305B700A304B7002304B70050
:10063000A303B7002303B700A302B7002302B70048
:10064000A301B7002301B700A300B7002300B70040
:10065000828093F5F50F93968500D58D93960501CD
:10066000D58D61B7939627009702000096968682F3
:10067000E78086FA9680C1171D8F3E96E374C3F813
:10068000A5B73367B500FD530D8B79E7B7877F7F3B
:100690009387F7F710419441B372F6003363F60085
:1006A000BE92B3E262006397720C6318D6065041A3
:1006B000D441B372F6003363F600BE92B3E2620037
:1006C0006398720A631BD60410459445B372F60012
:1006D0003363F600BE92B3E262006391720A631E56
:1006E000D6025045D445B372F6003363F600BE928D
:1006F000B3E26200639A72086311D602104994490A
:10070000B372F6003363F600BE92B3E26200639305
:1007100072085105D105E30FD6F61317060193971A
:100720000601631CF7001357060193D70601330532
:10073000F7409375F50F91E982804183C1833305BA
:10074000F7409375F50F91E182801377F70F93F7D8
:10075000F70F3305F74082800346050083C6050086
:10076000050585056313D60065FA3305D6408280FA
:1007700011059105E312D6FE014582802105A105F0
:10078000E31CD6FC014582803105B105E316D6FC99
:10079000014582804105C105E310D6FC01458280F8
:1007A000411122C417340020130444E1834704009C
:1007B00006C699EF9307000089CB17C50000130503
:1007C000E5C197000000E700000085472300F40022
:1007D000B2402244410182809307000089CF9705EF
:1007E00000209385651E17C50000130525BF17035C
:1007F0000000670000008280411106C622C4000884
:10080000EF30E072EF308063EF30E04C95454545C6
:10081000EF70C0418147114781461306A010AD65B6
:100820009385855A05651305E584EF10F033AA8793
:10083000FD17B337F00093F7F70F99C7AD6713852E
:10084000475BEF30607701A0EF10907301A07971E2
:1008500006D622D426D20018232EA4FCB7B7024015
:1008600013858710EF40A0362A87B717002093879B
:1008700047A3D8C3B7170020938747A3372704405F
:1008800098C3B7170020138647A3B7170020938596
:1008900047A0B71700201385C79DEF60701CAA877B
:1008A000FD8393F7F70F81C70145EF105060B7172D
:1008B000002083A4479AB717002083A7479A3E8554
:1008C000EF70205BAA873E86A685B71700201385A8
:1008D000C79DEF60503DAA87FD8393F7F70F81C74F
:1008E0000145EF10D05C930784FEBE861146B737F2
:1008F00000209385C75BB71700201385C79DEF6065
:10090000B047AA872326F4FE0327C4FE9307D051DD
:10091000631FF702B717002083A4C79AB7170020F8
:1009200083A7C79A3E85EF70C054AA873E86A685E6
:10093000B71700201385C79DEF60F036AA87B3373D
:10094000F00093F7F70F81C70145EF1050560327CA
:10095000C4FE9307C051631FF702B717002083A49A
:10096000879AB717002083A7879A3E85EF7060505B
:10097000AA873E86A685B71700201385C79DEF601E
:100980009032AA87B337F00093F7F70F81C701457C
:10099000EF10F051832784FE91CF832784FE3E869B
:1009A000B73700209385C75BB71700201385C79D15
:1009B000EF60702F8327C4FE91E335B7B71700208F
:1009C0001385C79DEF60B0250145EF10504E010023
:1009D000B2502254925445618280797106D622D455
:1009E0000018232EA4FC232204FEEF10F061B73779
:1009F000002083A7875C91E3112CB737002003A761
:100A0000475D8327C4FDF98F639D07128327C4FDCB
:100A100099C7A1470327C4FDBA97232EF4FC832767
:100A2000C4FD63800712B737002083A7C75C032784
:100A3000C4FD63E8E710B73700209387075C2324E1
:100A4000F4FEB73700209387075C9C432326F4FE0F
:100A500011A88327C4FE2324F4FE8327C4FE9C43ED
:100A60002326F4FE8327C4FEDC430327C4FD63F67C
:100A7000E7008327C4FE9C43E9FFB737002083A724
:100A8000875C0327C4FE630EF70A832784FE98431E
:100A9000A147BA972322F4FE8327C4FE98438327F5
:100AA00084FE98C38327C4FED8438327C4FD1D8FCB
:100AB000A147860763FAE7020327C4FE8327C4FD24
:100AC000BA972320F4FE8327C4FED8438327C4FDAE
:100AD0001D8F832704FED8C38327C4FE0327C4FDCC
:100AE000D8C3032504FEED2AB737002003A7C75C4F
:100AF0008327C4FEDC431D8FB737002023A6E75CA5
:100B0000B737002003A7C75CB737002083A7075D6E
:100B1000637AF700B737002003A7C75CB737002018
:100B200023A8E75C8327C4FED843B737002083A7F8
:100B3000475D5D8F8327C4FED8C38327C4FE23A0EF
:100B40000700EF10904E832744FE3E85B25022549A
:100B500045618280797106D622D40018232EA4FC28
:100B60008327C4FD2326F4FE8327C4FDD9CBA147E8
:100B7000B307F0400327C4FEBA972326F4FE832769
:100B8000C4FE2324F4FE832784FED843B737002015
:100B900083A7475DF98F99E3092B01A0832784FE82
:100BA0009C4399C3192301A0832784FED843B737F8
:100BB000002083A7475DF98FA9C7832784FE9C4344
:100BC000A9E3832784FED843B737002083A7475D76
:100BD00093C7F7FF7D8F832784FED8C3EF10D042E1
:100BE000832784FED843B737002083A7C75C3E978E
:100BF000B737002023A6E75C032584FED520EF103D
:100C0000D0420100B250225445618280011122CEAF
:100C100000108D67938707802326F4FEB717002006
:100C2000938707A52324F4FE832784FE2322F4FE62
:100C3000B73700209387075C032744FE98C3B73774
:100C400000209387075C23A20700832744FE032725
:100C5000C4FEBA972324F4FEA147032784FEB307FA
:100C6000F7402324F4FE032784FEB737002023A493
:100C7000E75CB737002083A7875C23A20700B7375C
:100C8000002083A7875C23A00700832744FE23203E
:100C9000F4FE832704FE032784FE1D8F832704FEB2
:100CA000D8C3B737002003A7875C832704FE98C307
:100CB000832704FED843B737002023A8E75C8327A7
:100CC00004FED843B737002023A6E75CB7370020DF
:100CD0003707008023AAE75C010072440561828027
:100CE000797122D60018232EA4FCB73700209387F1
:100CF000075C2326F4FE31A08327C4FE9C432326F1
:100D0000F4FE8327C4FE9C430327C4FDE3E6E7FE0D
:100D10008327C4FE2324F4FE8327C4FEDC43032779
:100D200084FEBA970327C4FD6310F7028327C4FE2D
:100D3000D8438327C4FDDC433E978327C4FED8C332
:100D40008327C4FE232EF4FC8327C4FD2324F4FE52
:100D50008327C4FDDC43032784FE3E978327C4FE1C
:100D60009C436316F7048327C4FE9843B7370020DB
:100D700083A7875C6305F7028327C4FDD8438327D5
:100D8000C4FE9C43DC433E978327C4FDD8C383271E
:100D9000C4FE9C4398438327C4FD98C339A8B73742
:100DA000002003A7875C8327C4FD98C339A083274D
:100DB000C4FE98438327C4FD98C30327C4FE83273A
:100DC000C4FD6307F7008327C4FE0327C4FD98C34F
:100DD0000100325445618280797106D622D4001810
:100DE000232EA4FC232CB4FC8327C4FD9C43232680
:100DF000F4FE8327C4FE63CF0700AD679386075DCB
:100E0000B167138607C393058033AD671385C75E4B
:100E1000EF60706A0327C4FEB7070020F98F91CFF7
:100E2000AD6793868763B167138607C393059033D5
:100E3000AD671385C75EEF6010680327C4FEB70770
:100E400000F9FD177D8F832784FD93968701B707EF
:100E50000007F58FD98F2326F4FE8327C4FD832650
:100E6000C4FE370700C07D17758F98C38327C4FD64
:100E70000327C4FE98C30100B2502254456182800A
:100E8000011122CE0010F37704302326F4FE8327CD
:100E9000C4FE3E85724405618280011122CE00109D
:100EA0002326A4FE8327C4FE7390073001007244FA
:100EB00005618280011122CE00102326A4FE832723
:100EC000C4FE91C7B7370020054723AEE75C010099
:100ED000724405618280411122C60008B7170020C4
:100EE00083A7079B81E77300000031A0B73700207C
:100EF000054723AEE75C0100324441018280411185
:100F000006C622C40008B717002003A7079BFD5799
:100F10006304F700592A01A0A53701A0011122CED0
:100F200000102326A4FE2324B4FE2322C4FE83271C
:100F3000C4FE37C7ADDE1307F7EE98C38327C4FEA0
:100F4000F1172326F4FE8327C4FE096713070788D9
:100F500098C38327C4FEF1172326F4FE032784FEDB
:100F60008327C4FE98C38327C4FEF1172326F4FE0B
:100F70008327C4FE9387C7FC2326F4FE032744FE81
:100F80008327C4FE98C38327C4FEF1172326F4FEEB
:100F90008327C4FEC1172326F4FEB1671387473E9B
:100FA0008327C4FE98C38327C4FEF1172326F4FECB
:100FB00085671387E7EF8327C4FE98C38327C4FEA2
:100FC000F1172326F4FE8327C4FE938747FC2326CC
:100FD000F4FE8327C4FE3E85724405618280411180
:100FE00006C622C400088D45B7B702401385070C1A
:100FF000E53399451305800CEF601038B7170020D2
:1010000023A8079AEFF0CFA7DD3D85473E85B24084
:10101000224441018280411106C622C40008712089
:10102000B717002083A7079B13871700B717002067
:1010300023A8E79AB717002003A7079B85476319E2
:10104000F700B737002083A7875D99C3B92801A0AF
:101050000100B240224441018280411106C622C4EF
:101060000008B717002083A7079B99E33D2801A03C
:10107000B717002083A7079B1387F7FFB717002038
:1010800023A8E79AB717002083A7079B91EB1D457C
:101090009928B737002083A7C75D99C37300000064
:1010A0000100B240224441018280011106CE22CCCF
:1010B0000010F9332326A4FEB71704E093874702F4
:1010C0009C432324F4FEB71704E0938747020947A3
:1010D00098C30325C4FED133832784FE3E85F240A6
:1010E000624405618280797106D622D40018232ECD
:1010F000A4FC79332326A4FEB71704E093874702A4
:101100000327C4FD98C30325C4FE413B0100B25030
:10111000225445618280411106C622C400087137FD
:10112000EF60702FEF105008AA8791C7B7370020E3
:10113000054723AEE75C1D457D370100B2402244E0
:1011400041018280011106CE22CC00107145EFF0E2
:10115000DF882326A4FE8327C4FE91CB8327C4FE09
:1011600023A007008327C4FE91073E8541218327E2
:10117000C4FE3E85F2406244056182805D7186C690
:10118000A2C480082326A4FC2324B4FC2322C4FC8C
:101190002320D4FC232EE4FA8327C4FC2322F4FE6C
:1011A000232404FE232004FE8327C4FC99E3F53D99
:1011B00001A0032784FCB70700FFF98F99C3F53519
:1011C00001A0832784FC99E3CD3501A0EF10707F47
:1011D000AA8781E78327C4FB99E3854711A081474C
:1011E00099E3E13501A0EF102062832744FE9C4380
:1011F000232EF4FC032604FC832584FC0325C4FD74
:10120000B12E232CA4FC832784FD95C78327C4FD1E
:101210002326F4FE232E04FA832744FCB5CB832730
:1012200044FE9843832784FC93C7F7FF7D8F832771
:1012300044FE98C3B1A88327C4FB91E78327C4FD6C
:101240002326F4FEB1A0832744FC81CB032784FE30
:10125000B7070001D98F2324F4FE832704FC81CB38
:10126000032784FEB7070004D98F2324F4FE8327C5
:1012700044FE93864700032784FC832784FED98F8E
:101280000326C4FBBE853685EF10701D232604FEA1
:10129000EF10A059232AA4FC8327C4FBBDC78327D2
:1012A00044FD91E30D39EF2060132326A4FE0327AC
:1012B000C4FEB7070002F98FA9E3B13B832744FEC0
:1012C0009C432326F4FE032604FC832584FC03258B
:1012D000C4FE6924AA8799CF832744FC81CF832742
:1012E00044FE9843832784FC93C7F7FF7D8F8327B1
:1012F00044FE98C39D33232004FE0327C4FEB70792
:101300000001FD17F98F2326F4FE8327C4FE3E85D6
:10131000B640264461618280797106D622D40018D5
:10132000232EA4FC232CB4FC8327C4FD2326F4FE27
:101330008327C4FD99E3953B01A0032784FDB707EC
:1013400000FFF98F99C3953301A0F1318327C4FEC3
:101350009C432324F4FE8327C4FE9843832784FD03
:1013600093C7F7FF7D8F8327C4FE98C3FD31832782
:1013700084FE3E85B2502254456182805D7186C6EE
:10138000A2C48008232EA4FA232CB4FA232404FE3A
:101390008327C4FB2320F4FE232204FE8327C4FBFF
:1013A00099E3213301A0032784FBB70700FFF98FDE
:1013B00099C3E53901A0832704FE9107232EF4FC8D
:1013C0008327C4FDA107232CF4FCEF10E0438327FF
:1013D000C4FDDC472326F4FE832704FE98438327BD
:1013E00084FB5D8F832704FE98C34DA88327C4FE2A
:1013F000DC43232AF4FC8327C4FE9C432328F4FC0B
:10140000232204FE032704FDB70700FFF98F2326DC
:10141000F4FC032704FDB7070001FD17F98F23280B
:10142000F4FC0327C4FCB7070004F98F81EF83277E
:1014300004FE9843832704FDF98F95C38547232233
:10144000F4FE31A8832704FE9843832704FDF98F17
:10145000032704FD6315F70085472322F4FE832745
:1014600044FE8DCB0327C4FCB7070001F98F81CB65
:10147000032784FE832704FDD98F2324F4FE8327CA
:1014800004FE9843B7070002D98FBE850325C4FE2A
:10149000EF109016832744FD2326F4FE0327C4FE95
:1014A000832784FDE314F7F4832704FE98438327FE
:1014B00084FE93C7F7FF7D8F832704FE98C3EF1048
:1014C000C036832704FE9C433E85B64026446161B6
:1014D0008280797106D622D40018232EA4FC83279B
:1014E000C4FD2326F4FE8327C4FE91072324F4FEC3
:1014F000EF1080311DA0832784FED847832784FE08
:10150000A1076314F700553601A0832784FEDC474A
:10151000B70500023E85EF10300E832784FE9C4302
:10152000F9FB0325C4FEEFF0EFE2EF1000300100FD
:10153000B250225445618280011106CE22CC0010A7
:101540002326A4FE2324B4FE832584FE0325C4FEA3
:1015500035350100F240624405618280797122D6FE
:101560000018232EA4FC232CB4FC232AC4FC23261D
:1015700004FE832744FD99EB0327C4FD832784FDE4
:10158000F98F8DC385472326F4FE29A80327C4FDC0
:10159000832784FDF98F032784FD6315F7008547B2
:1015A0002326F4FE8327C4FE3E85325445618280A3
:1015B000797106D622D40018232EA4FC232CB4FC67
:1015C000232AC4FC832644FD032684FD8325C4FD11
:1015D000856713858753EF20605F2326A4FE83274A
:1015E000C4FE3E85B250225445618280011122CE54
:1015F00000102326A4FE8327C4FE138787008327B9
:10160000C4FED8C38327C4FE7D5798C78327C4FE72
:10161000138787008327C4FED8C78327C4FE138798
:1016200087008327C4FE98CB8327C4FE23A007002E
:101630000100724405618280011122CE0010232630
:10164000A4FE8327C4FE23A807000100724405619D
:101650008280797122D60018232EA4FC232CB4FC9E
:101660008327C4FDDC432326F4FE832784FD032760
:10167000C4FED8C38327C4FE9847832784FD98C738
:101680008327C4FE9C47032784FDD8C38327C4FE59
:10169000032784FD98C7832784FD0327C4FD98CBC7
:1016A0008327C4FD9C43138717008327C4FD98C379
:1016B0000100325445618280797122D60018232EB0
:1016C000A4FC232CB4FC832784FD9C432324F4FE38
:1016D000032784FEFD576318F7008327C4FD9C4B46
:1016E0002326F4FE25A08327C4FDA1072326F4FEAC
:1016F00031A08327C4FEDC432326F4FE8327C4FEE7
:10170000DC439C43032784FEE375F7FE8327C4FE76
:10171000D843832784FDD8C3832784FDDC43032774
:1017200084FD98C7832784FD0327C4FE98C78327B9
:10173000C4FE032784FDD8C3832784FD0327C4FD8B
:1017400098CB8327C4FD9C43138717008327C4FDD0
:1017500098C30100325445618280797122D6001805
:10176000232EA4FC8327C4FD9C4B2326F4FE832751
:10177000C4FDDC430327C4FD184798C78327C4FD75
:101780009C470327C4FD5843D8C38327C4FEDC43CA
:101790000327C4FD6318F7008327C4FD98478327F8
:1017A000C4FED8C38327C4FD23A807008327C4FE33
:1017B0009C431387F7FF8327C4FE98C38327C4FE87
:1017C0009C433E85325445618280797106D622D48D
:1017D0000018232EA4FC232CB4FC8327C4FD23264D
:1017E000F4FE8327C4FE81E7EFF03F8C01A0EFF009
:1017F0009F828327C4FE98438327C4FED45F832738
:10180000C4FEBC43B387F6023E978327C4FED8C309
:101810008327C4FE23AC07028327C4FE9843832793
:10182000C4FE98C78327C4FE98438327C4FEDC5FA9
:101830009386F7FF8327C4FEBC43B387F6023E9727
:101840008327C4FED8C78327C4FE7D572382E704BD
:101850008327C4FE7D57A382E704832784FD85E3A5
:101860008327C4FE9C4B9DC78327C4FEC1073E85CA
:10187000EF10E04AAA8799CFEFF0EFE521A8832780
:10188000C4FEC1073E859D338327C4FE938747026C
:101890003E85A93BEFF06FFC85473E85B250225450
:1018A00045618280797106D622D40018232EA4FCCB
:1018B000232CB4FCB287A30BF4FC8327C4FD81E77F
:1018C000EFF0AFFE01A0832784FD81E7232604FE0D
:1018D00009A80327C4FD832784FDB307F702232645
:1018E000F4FE8327C4FE938707053E85EFF0EF8E55
:1018F0002324A4FE832784FE9DC3832784FE93872D
:1019000007052322F4FE834774FD032784FEBE8669
:10191000032644FE832584FD0325C4FD0128832777
:1019200084FE3E85B250225445618280797106D68C
:1019300022D400182326A4FE2324B4FE2322C4FEAE
:10194000B687232EE4FCA301F4FE832784FE99E7E7
:101950008327C4FD0327C4FD98C331A08327C4FD9A
:10196000032744FE98C38327C4FD0327C4FED8DFA2
:101970008327C4FD032784FEB8C385450325C4FD22
:10198000A9358327C4FD034734FE2386E7040100FD
:10199000B250225445618280011106CE22CC001043
:1019A0002326A4FE8327C4FE9DC38327C4FE23A24F
:1019B00007008327C4FE23A007008327C4FE23A6B5
:1019C00007008146014681450325C4FEB120010080
:1019D000F240624405618280797106D622D40018F3
:1019E000AA87A30FF4FC85472326F4FE232404FED4
:1019F0008347F4FD3E86832584FE0325C4FE5D35C2
:101A00002322A4FE032544FE413F832744FE3E8556
:101A1000B250225445618280397106DE22DC80009A
:101A20002326A4FC2324B4FC2322C4FC2320D4FCBE
:101A3000232604FE8327C4FC2324F4FE832784FE8C
:101A400081E7EFF08FE601A0832784FC89E78327F5
:101A500084FEBC4399E3854711A0814781E7EFF0FD
:101A6000CFE401A0032704FC89476318F70083270C
:101A700084FED85F85476314F700854711A081472E
:101A800081E7EFF08FE201A0EF10A073AA8781E752
:101A9000832744FC99E3854711A0814781E7EFF054
:101AA000CFE001A0EFF02FD7832784FE985F832734
:101AB00084FEDC5F6367F700032704FC8947631437
:101AC000F704032604FC832584FC032584FEB9293E
:101AD0002322A4FE832784FEDC5389CF832784FE40
:101AE000938747023E85EF108023AA8789CBEFF0CA
:101AF0008FBE31A0832744FE99C3EFF0CFBDEFF036
:101B0000CFD58547F1A0832744FC89E7EFF0EFD4D8
:101B100081477DA88327C4FE89EB9307C4FD3E85DA
:101B2000EF10003B85472326F4FEEFF00FD3EF00C4
:101B3000B04DEFF04FCE832784FE83C74704139741
:101B400087016187FD576316F700832784FE238290
:101B50000704832784FE83C757041397870161878F
:101B6000FD576316F700832784FEA3820704EFF076
:101B7000CFCE130744FC9307C4FDBA853E85EF1012
:101B80000039AA87A1E3032584FE052DAA878DC706
:101B9000832784FEC107032744FCBA853E85EF10E6
:101BA000C007032584FE292BEF003048AA87E39B5A
:101BB00007EEEFF04FB2FDB5032584FE1123EF00D1
:101BC000D046CDB5032584FEE529EF0010468147B8
:101BD0003E85F250625421618280797106D622D40A
:101BE0000018232EA4FC232CB4FC232AC4FC232895
:101BF000D4FC8327C4FD2324F4FE832784FE81E7DD
:101C0000EFF0AFCA01A0832784FD89E7832784FE14
:101C1000BC4399E3854711A0814781E7EFF0EFC806
:101C200001A0032704FD89476318F700832784FE7A
:101C3000D85F85476314F700854711A0814781E786
:101C4000EFF0AFC601A0EFF04FC62322A4FE83271A
:101C500084FE985F832784FEDC5F6367F7000327B9
:101C600004FD89476319F706832784FE83C7570459
:101C7000A301F4FE032604FD832584FD032584FED1
:101C80007524030734FEFD576317F702832784FE8C
:101C9000DC5395CF832784FE938747023E85EF1060
:101CA0000008AA878DC7832744FD95C3832744FD79
:101CB000054798C329A8834734FE850793F7F70F94
:101CC000139787016187832784FEA382E7048547F2
:101CD0002326F4FE19A0232604FE032544FEEFF07C
:101CE0008FC08327C4FE3E85B25022544561828056
:101CF000397106DE22DC80002326A4FC2324B4FCF8
:101D00002322C4FC2320D4FC232604FE8327C4FC06
:101D10002324F4FE832784FE81E7EFF00FB901A0AE
:101D2000832784FC89E7832784FEBC4399E38547A6
:101D300011A0814781E7EFF04FB701A0EF10604895
:101D4000AA8781E7832744FC99E3854711A081474F
:101D500081E7EFF08FB501A0EFF0EFAB832784FEB2
:101D60009C5F2322F4FE832744FED1C7832784FE91
:101D7000DC472320F4FE832584FC032584FEE12C2C
:101D8000832704FCA9E3832744FE1387F7FF8327F7
:101D900084FE98DF832784FE9C4399E7EF10A067B9
:101DA0002A87832784FED8C3832784FE9C4BA1C344
:101DB000832784FEC1073E85EF007076AA8785CB16
:101DC000EFF06F912DA0832784FE032704FED8C770
:101DD000832784FEDC5381CF832784FE93874702C9
:101DE0003E85EF00D073AA8799C3EFF0CF8EEFF056
:101DF000CFA68547DDA8832744FC89E7EFF0EFA550
:101E00008147E5A08327C4FE89EB930784FD3E85C7
:101E1000EF10000C85472326F4FEEFF00FA4EF002F
:101E2000B01EEFF04F9F832784FE83C747041397AC
:101E300087016187FD576316F700832784FE23829D
:101E40000704832784FE83C757041397870161879C
:101E5000FD576316F700832784FEA3820704EFF083
:101E6000CF9F130744FC930784FDBA853E85EF108E
:101E7000000AAA87B9EF032584FE2926AA87A1C7ED
:101E8000832784FE9C4399EBEFF0EF98832784FE31
:101E9000DC433E85EF108036EFF02F9C832784FED5
:101EA00093874702032744FCBA853E85EF00F0562E
:101EB000032584FE3124EF005017AA87E39E07E82C
:101EC000EFF06F8151BD032584FEDD2AEF00F01590
:101ED00061B5032584FEED22EF003015032584FE55
:101EE0005524AA87E38A07E681473E85F25062546B
:101EF00021618280797106D622D40018232EA4FC99
:101F00008327C4FD2326F4FE8327C4FE81E7EFF078
:101F1000CF9901A00325C4FE912E0325C4FEEFE056
:101F20007FC30100B250225445618280797106D688
:101F300022D40018232EA4FC232CB4FC232AC4FC96
:101F4000232604FE8327C4FD9C5F2324F4FE8327FD
:101F5000C4FDBC4395E38327C4FD9C43F9EF83276D
:101F6000C4FDDC433E85EF10A0382326A4FE832762
:101F7000C4FD23A20700D1A0832744FDB1E7832736
:101F8000C4FD98478327C4FDBC433E86832584FD5A
:101F90003A85EF5030608327C4FD98478327C4FDFE
:101FA000BC433E978327C4FD98C78327C4FD984749
:101FB0008327C4FDDC436362F7088327C4FD98438D
:101FC0008327C4FD98C795A88327C4FDD8478327D6
:101FD000C4FDBC433E86832584FD3A85EF50905B6B
:101FE0008327C4FDD8478327C4FDBC43B307F04013
:101FF0003E978327C4FDD8C78327C4FDD8478327CE
:10200000C4FD9C43637EF7008327C4FDD843832728
:10201000C4FDBC43B307F0403E978327C4FDD8C737
:10202000032744FD8947631AF700832784FE91C77D
:10203000832784FEFD172324F4FE832784FE138761
:1020400017008327C4FD98DF8327C4FE3E85B25066
:10205000225445618280011106CE22CC0010232635
:10206000A4FE2324B4FE8327C4FEBC43A9C7832750
:10207000C4FED8478327C4FEBC433E978327C4FED3
:10208000D8C78327C4FED8478327C4FEDC436368D0
:10209000F7008327C4FE98438327C4FED8C783274D
:1020A000C4FED8478327C4FEBC433E86BA850325B9
:1020B00084FEEF50304E0100F240624405618280A0
:1020C000797106D622D40018232EA4FCEFE0BFF4C9
:1020D0008327C4FD83C75704A307F4FE3DA08327CD
:1020E000C4FDDC5385CB8327C4FD938747023E851F
:1020F000EF00F042AA8799C3EF00F06D8347F4FE2A
:10210000FD1793F7F70FA307F4FE8307F4FEE348E8
:10211000F0FC11A001008327C4FD7D57A382E704D2
:10212000EFE0BFF3EFE03FEF8327C4FD83C7470431
:102130002307F4FE35A08327C4FD9C4B9DC783274E
:10214000C4FDC1073E85EF00903DAA8799C3EF000B
:1021500090688347E4FEFD1793F7F70F2307F4FE1B
:102160008307E4FEE349F0FC11A001008327C4FDCE
:102170007D572382E704EFE05FEE0100B250225466
:1021800045618280797106D622D40018232EA4FCE2
:10219000EFE07FE88327C4FD9C5F89E7854723261E
:1021A000F4FE19A0232604FEEFE03FEB8327C4FED4
:1021B0003E85B250225445618280797106D622D480
:1021C0000018232EA4FCEFE01FE58327C4FD985FD1
:1021D0008327C4FDDC5F6316F70085472326F4FEE2
:1021E00019A0232604FEEFE05FE78327C4FE3E85A7
:1021F000B250225445618280797122D60018232E74
:10220000A4FC232CB4FC232604FEB9A0B73700207D
:10221000138707258327C4FE8E07BA979C4385EB57
:10222000B7370020138707258327C4FE8E07BA9788
:10223000032784FD98C3B73700201387072583271A
:10224000C4FE8E07BA970327C4FDD8C321A88327ED
:10225000C4FE85072326F4FE0327C4FE9D47E3F74B
:10226000E7FA01000100325445618280797122D67B
:102270000018232EA4FC232604FE81A8B7370020D3
:10228000138707258327C4FE8E07BA97DC430327ED
:10229000C4FD6317F702B73700201387072583278C
:1022A000C4FE8E07BA9723A00700B7370020138714
:1022B00007258327C4FE8E07BA9723A2070021A80B
:1022C0008327C4FE85072326F4FE0327C4FE9D470B
:1022D000E3F6E7FA0100010032544561828079712A
:1022E00006D622D40018232EA4FC232CB4FC232AC7
:1022F000C4FC8327C4FD2326F4FEEFE0DFD183274F
:10230000C4FE83C74704139787016187FD5763168F
:10231000F7008327C4FE238207048327C4FE83C7F4
:102320005704139787016187FD576316F7008327CA
:10233000C4FEA3820704EFE05FD28327C4FE9C5F44
:1023400081EF8327C4FE93874702032644FD83253C
:1023500084FD3E85EF0070170325C4FE9533010010
:10236000B250225445618280397106DE22DC800041
:10237000232EA4FC232CB4FC2328D4FC2326E4FC29
:102380002324F4FCB287231BF4FC835764FD8A07E3
:102390003E85EFE08FE42322A4FE832744FE8DC711
:1023A00013058007EFE06FE32326A4FE8327C4FE16
:1023B00099C78327C4FE032744FE98DB01A80325A1
:1023C00044FEEFE02FF919A0232604FE8327C4FE64
:1023D00085CB035664FD81480328C4FE832784FC13
:1023E0000327C4FC832604FD832584FD0325C4FD47
:1023F00015200325C4FE652285472324F4FE21A071
:10240000FD572324F4FE832784FE3E85F250625458
:1024100021618280397106DE22DC8000232EA4FC3B
:10242000232CB4FC232AC4FC2328D4FC2326E4FC5C
:102430002324F4FC232204FD232014FD832744FCE1
:10244000985B832744FD8A073E869305500A3A85A8
:10245000EFE0AF98832744FC985B832644FDB707E1
:102460000040FD17B6978A07BA972324F4FE832706
:1024700044FC032784FEB8C7232604FE25A80327AF
:1024800084FD8327C4FEBA9703870700832644FC94
:102490008327C4FEB697238AE702032784FD832798
:1024A000C4FEBA978387070081CF8327C4FE8507C0
:1024B0002326F4FE0327C4FECD47E3F2E7FC11A078
:1024C0000100832744FCA38307040327C4FC91472E
:1024D00063F5E70091472326F4FC832744FC032798
:1024E000C4FCD8D7832744FC0327C4FCF8CB83273C
:1024F00044FC23AC0704832744FC91073E85EFF09E
:10250000AF93832744FCE1073E85EFF0EF928327EA
:1025100044FC032744FC98CB15478327C4FC1D8F3C
:10252000832744FC98CF832744FC032744FCD8D35B
:10253000232604FE39A8032744FC8327C4FED107C1
:102540008A07BA9723A607008327C4FE8507232698
:10255000F4FE0327C4FE9147E3FFE7FC832744FC16
:1025600023A80706832744FC238A0706032604FDC5
:102570008325C4FD032584FEEFE05F9A2A87832725
:1025800044FC98C3832784FC91C7832784FC0327DA
:1025900044FC98C30100F250625421618280011111
:1025A00006CE22CC00102326A4FEEFE0DFA6B7372C
:1025B000002083A7075F13871700B737002023A8E1
:1025C000E75EB737002083A7075E8DE3B7370020AB
:1025D0000327C4FE23A0E75EB737002003A7075FE9
:1025E0008547631AF702EF00D02235A0B7370020E5
:1025F00083A7C75F8DE3B737002083A7075ED8574F
:102600008327C4FEDC5763E8E700B73700200327C1
:10261000C4FE23A0E75EB737002083A7C7601387F7
:102620001700B737002023A6E760B737002003A7BD
:10263000C7608327C4FEF8C78327C4FED857B737BF
:10264000002083A7875F63F9E7008327C4FED8577C
:10265000B737002023ACE75E8327C4FED857BA877C
:102660008A07BA978A0737370020130707293E974A
:102670008327C4FE9107BE853A85EFE09FFDEFE01A
:10268000DF9DB737002083A7C75F89CFB73700200A
:1026900083A7075ED8578327C4FEDC576374F7000F
:1026A000EFE07F830100F24062440561828079712E
:1026B00006D622D40018232EA4FCEFE0DF95832752
:1026C000C4FD91E7B737002083A7075E19A08327D1
:1026D000C4FD2326F4FE8327C4FE91073E85EFF058
:1026E000CF878327C4FE9C5799C78327C4FEE10781
:1026F0003E85EFF08F868327C4FE9107BE85B737EE
:10270000002013854734EFE0DFF4EFE01F95B73783
:10271000002083A7C75F99C7EFE0FF8FEF00B025C8
:10272000EFE0BF93B737002083A7075E0327C4FEFF
:102730006313F704B737002083A7C75F81CFB7378C
:10274000002083A7876181C7EFE03F9601A0EFE0FB
:102750008FF815A0B7370020938747349843B737D1
:10276000002083A7075F6317F700B737002023A077
:10277000075E11A0D92E0100B2502254456182801B
:10278000011106CE22CC0010B73700209387476195
:102790000147814613060010AD65938585650D657B
:1027A0001305E5FEEFF05FBC2326A4FE0327C4FE5D
:1027B00085476316F700EF0090562326A4FE0327F3
:1027C000C4FE85476315F702EFE03F8EB737002060
:1027D0007D5723A8E760B7370020054723AEE75EA3
:1027E000B737002023AA075EEFE06FFF09A8032791
:1027F000C4FEFD576315F700EFE03F8B01A0010019
:10280000F240624405618280411122C60008B73758
:10281000002083A7876113871700B737002023ACF8
:10282000E7600100324441018280011106CE22CCD2
:102830000010232604FE232404FEB737002083A7BC
:10284000876181E7EFE07F8601A0EFE0CFFCB7373B
:10285000002083A787611387F7FFB737002023ACD9
:10286000E760B737002083A7876163910710B73708
:10287000002083A7075F638B070E79A0B73700207E
:102880009387C731DC47DC472326F4FE8327C4FE49
:10289000E1073E85EFE07FEC8327C4FE91073E858C
:1028A000EFE0BFEB8327C4FED857B737002083A7DC
:1028B000875F63F9E7008327C4FED857B737002046
:1028C00023ACE75E8327C4FED857BA878A07BA9736
:1028D0008A0737370020130707293E978327C4FE4E
:1028E0009107BE853A85EFE0DFD68327C4FED8572F
:1028F000B737002083A7075EDC576367F700B73759
:102900000020054723A2E760B73700209387C7312F
:102910009C43ADF78327C4FE99C3EF00D005B737BA
:10292000002083A707602322F4FE832744FE8DC77F
:10293000A528AA8791C7B7370020054723A2E760DB
:10294000832744FEFD172322F4FE832744FEEDF384
:10295000B737002023A00760B737002083A7476060
:1029600091C785472324F4FEEFE0EFD6EFE0EFEECA
:10297000832784FE3E85F240624405618280011116
:1029800006CE22CC0010EFE00FE9B737002083A776
:10299000475F2326F4FEEFE04FEC8327C4FE3E851D
:1029A000F240624405618280797106D622D4001813
:1029B000232604FEB737002083A78761639E071490
:1029C000B737002083A7475F85072324F4FEB73776
:1029D0000020032784FE23AAE75E832784FEB1EB51
:1029E000B737002083A7475E9C4381C7EFE0EFEB3A
:1029F00001A0B737002083A7475E2322F4FEB73734
:102A0000002003A7875EB737002023A2E75EB73711
:102A10000020032744FE23A4E75EB737002083A7E6
:102A2000876013871700B737002023A4E760EF0003
:102A30008074B737002083A70761032784FE63678C
:102A4000F70EB737002083A7475E9C4399E385477D
:102A500011A0814799C7B73700207D5723A8E760A9
:102A6000F1A0B737002083A7475EDC47DC4723206F
:102A7000F4FE832704FEDC43232EF4FC032784FEAC
:102A80008327C4FD6379F700B73700200327C4FD0F
:102A900023A8E76061A8832704FE91073E85EFE045
:102AA000DFCB832704FE9C5799C7832704FEE107E9
:102AB0003E85EFE09FCA832704FED857B737002032
:102AC00083A7875F63F9E700832704FED857B737EA
:102AD000002023ACE75E832704FED857BA878A0715
:102AE000BA978A0737370020130707293E978327AD
:102AF00004FE9107BE853A85EFE0BFB5832704FE4B
:102B0000D857B737002083A7075EDC57E36BF7F28F
:102B100085472326F4FE35B7B737002083A7076023
:102B200013871700B737002023A0E760B7370020CE
:102B300083A7476081C785472326F4FE8327C4FE09
:102B40003E85B250225445618280011106CE22CCCE
:102B50000010B737002083A7876199C7B7370020D7
:102B6000054723A2E7606DA0B737002023A20760C6
:102B7000B737002083A7875F2326F4FE21A8832789
:102B8000C4FE81E7EFE06FD201A08327C4FEFD17EA
:102B90002326F4FEB7370020938607290327C4FEB7
:102BA000BA878A07BA978A07B6979C43E9DB032757
:102BB000C4FEBA878A07BA978A07373700201307F7
:102BC0000729BA972324F4FE832784FEDC43D843E5
:102BD000832784FED8C3832784FED843832784FEBB
:102BE000A1076319F700832784FEDC43D8438327BA
:102BF00084FED8C3832784FEDC43D847B737002040
:102C000023A0E75EB73700200327C4FE23ACE75EAE
:102C10000100F240624405618280011106CE22CC9F
:102C200000102326A4FE2324B4FE8327C4FE81E7DC
:102C3000EFE0AFC701A0B737002083A7075EE10729
:102C4000BE850325C4FEEFE03FA78545032584FE2E
:102C5000EF00407F0100F240624405618280011173
:102C600006CE22CC00102326A4FE2324B4FE232269
:102C7000C4FE8327C4FE81E7EFE02FC301A0B7376E
:102C8000002083A7876181E7EFE02FC201A0B7375B
:102C9000002083A7075E832684FE37070080558FB8
:102CA00098CFB737002083A7075EE107BE850325CD
:102CB000C4FEEFE01F9A8545032544FEEF008078AF
:102CC0000100F240624405618280011106CE22CCEF
:102CD00000102326A4FE2324B4FE2322C4FE83274F
:102CE000C4FE81E7EFE06FBC01A0B737002083A7E7
:102CF000075EE107BE850325C4FEEFE09F958327AD
:102D000044FE81C7FD572324F4FE832544FE03259A
:102D100084FE0D2F0100F2406244056182807971CA
:102D200006D622D40018232EA4FC8327C4FDDC473A
:102D3000DC472324F4FE832784FE81E7EFE0EFB62F
:102D400001A0832784FEE1073E85EFE01FA1B7378E
:102D5000002083A78761B9EB832784FE91073E8516
:102D6000EFE0BF9F832784FED857B737002083A7A3
:102D7000875F63F9E700832784FED857B7370020C1
:102D800023ACE75E832784FED857BA878A07BA97B1
:102D90008A0737370020130707293E97832784FEC9
:102DA0009107BE853A85EFE0DF8A19A8832784FE64
:102DB000E107BE85B73700201385C731EFE07F8973
:102DC000832784FED857B737002083A7075EDC57D8
:102DD00063FBE70085472326F4FEB737002005474D
:102DE00023A2E76019A0232604FE8327C4FE3E85A4
:102DF000B250225445618280797106D622D40018DF
:102E0000232EA4FC232CB4FCB737002083A78761B2
:102E100081E7EFE08FA901A0032784FDB7070080B9
:102E20005D8F8327C4FD98C38327C4FDDC4723241B
:102E3000F4FE832784FE81E7EFE02FA701A003259E
:102E4000C4FDEFE09F91832784FE91073E85EFE06C
:102E5000DF90832784FED857B737002083A7875F8A
:102E600063F9E700832784FED857B737002023ACE7
:102E7000E75E832784FED857BA878A07BA978A07FE
:102E800037370020130707293E97832784FE9107D1
:102E9000BE853A85EFE0EFFB832784FED857B7372E
:102EA000002083A7075EDC5763FBE70085472326E6
:102EB000F4FEB7370020054723A2E76019A02326B8
:102EC00004FE8327C4FE3E85B250225445618280B1
:102ED000011106CE22CC00102326A4FE8327C4FEB7
:102EE00081E7EFE08F9C01A0B737002003A7876040
:102EF0008327C4FE98C3B737002003A7475F832703
:102F0000C4FED8C30100F240624405618280797139
:102F100006D622D40018232EA4FC232CB4FC83272D
:102F2000C4FD81E7EFE06F9801A0832784FD81E76E
:102F3000EFE0AF9701A0EFE00F8EB737002083A737
:102F4000475F2324F4FE832784FD9843FD576315D0
:102F5000F700232604FEBDA08327C4FD9843B7379E
:102F6000002083A78760630DF7008327C4FDDC433F
:102F7000032784FE6366F70085472326F4FE99A0A5
:102F80008327C4FDDC43032784FE1D8F832784FD34
:102F90009C436376F702832784FD98438327C4FD0F
:102FA000D443832784FEB387F6403E97832784FD6E
:102FB00098C30325C4FD293F232604FE21A085478D
:102FC0002326F4FEEFE06F898327C4FE3E85B250CE
:102FD000225445618280411122C60008B737002083
:102FE000054723A2E76001003244410182800111BC
:102FF00006CE22CC00102326A4FE7528B737002069
:103000009387072998438547E3F9E7FEEFD0BFECA4
:10301000EDB7011106CE22CC0010232604FE25A018
:103020000327C4FEBA878A07BA978A073737002072
:1030300013070729BA973E85EFE04FDB8327C4FECD
:1030400085072326F4FE0327C4FE9147E3FAE7FC35
:10305000B73700201385472FEFE04FD9B73700204F
:1030600013858730EFE08FD8B73700201385C7313D
:10307000EFE0CFD7B737002013850733EFE00FD746
:10308000B737002013854734EFE04FD6B73700201D
:10309000373700201307472F23A2E75EB7370020FA
:1030A000373700201307873023A4E75E0100F24082
:1030B000624405618280011106CE22CC0010A5A8D1
:1030C000EFF08FF4B7370020938707339C4393B713
:1030D000170093F7F70F2326F4FEEFF00FF5832781
:1030E000C4FEB1EBEFD03FF3B7370020938707332F
:1030F000DC47DC472324F4FE832784FE91073E85CA
:10310000EFE0AFE5B737002083A7075F1387F7FF2E
:10311000B737002023A8E75EB737002083A7C75E34
:103120001387F7FFB737002023A6E75EEFD0FFF243
:10313000032584FE2128B737002083A7C75EC9F383
:1031400001000100F240624405618280011106CE57
:1031500022CC00102326A4FE8327C4FE9C5B3E8560
:10316000EFD05F9F0325C4FEEFD0DF9E0100F24049
:10317000624405618280011122CE0010B737002021
:1031800083A7475E9C4399E3854711A0814799C770
:10319000B73700207D5723A8E76005A0B737002088
:1031A00083A7475EDC47DC472326F4FE8327C4FE63
:1031B000D843B737002023A8E760010072440561B7
:1031C0008280011122CE0010B737002083A7C75F8D
:1031D00089E785472326F4FE21A8B737002083A777
:1031E000876189E789472326F4FE19A0232604FE78
:1031F0008327C4FE3E85724405618280797106D6BC
:1032000022D40018232EA4FC8327C4FD2326F4FE19
:103210008327C4FDE9CB8327C4FED857B7370020E6
:1032200083A7075EDC576370F70C8327C4FE9C4FAF
:1032300063CC0700B737002083A7075EDC5715472C
:103240001D8F8327C4FE98CF8327C4FED44B8327CA
:10325000C4FED857BA878A07BA978A07373700203B
:1032600013070729BA976394F600854711A0814791
:10327000BDC38327C4FE91073E85EFE00FCEB7376D
:10328000002083A7075ED8578327C4FED8D783279B
:10329000C4FED857B737002083A7875F63F9E700DC
:1032A0008327C4FED857B737002023ACE75E8327B7
:1032B000C4FED857BA878A07BA978A0737370020DB
:1032C000130707293E978327C4FE9107BE853A85D9
:1032D000EFE02FB809A8B737002083A7075ED857BB
:1032E0008327C4FED8D70100B250225445618280A2
:1032F000797106D622D40018232EA4FC8327C4FD9E
:103300002324F4FE232604FE8327C4FDE9C3B73734
:10331000002083A7075E032784FE6305F700EFD034
:10332000DFD801A0832784FEBC4F81E7EFD0FFD711
:1033300001A0832784FEBC4F1387F7FF832784FEF9
:10334000B8CF832784FED857832784FEFC4B6300C5
:10335000F708832784FEBC4FBDEB832784FE9107CB
:103360003E85EFE08FBF832784FEF84B832784FEE2
:10337000D8D7832784FEDC5715471D8F832784FE0B
:1033800098CF832784FED857B737002083A7875F5D
:1033900063F9E700832784FED857B737002023ACB2
:1033A000E75E832784FED857BA878A07BA978A07C9
:1033B00037370020130707293E97832784FE91079C
:1033C000BE853A85EFE0EFA885472326F4FE8327E4
:1033D000C4FE3E85B250225445618280011122CE46
:1033E0000010B737002083A7075E9C4F2326F4FE0A
:1033F000B737002083A7075ED857B737002083A7C9
:10340000075E95463387E64098CF8327C4FE3E8506
:10341000724405618280411122C60008B73700203E
:1034200083A7075E81CBB737002083A7075EB84F1D
:103430000507B8CFB737002083A7075E3E85324423
:1034400041018280797106D622D40018232EA4FC73
:10345000232CB4FCB737002083A7475F2326F4FE54
:10346000B737002083A7075E91073E85EFE0EFAEF8
:103470000327C4FDFD576312F702832784FD91CF14
:10348000B737002083A7075E9107BE85B7370020B6
:1034900013854734EFE0EF9BB5A80327C4FE8327CD
:1034A000C4FDBA972324F4FEB737002083A7075E34
:1034B000032784FED8C3032784FE8327C4FE6370DA
:1034C000F702B737002003A7875EB737002083A72E
:1034D000075E9107BE853A85EFE00F9E25A8B737B6
:1034E000002003A7475EB737002083A7075E910738
:1034F000BE853A85EFE04F9CB737002083A7076170
:10350000032784FE6378F700B7370020032784FE83
:1035100023A8E7600100B250225445618280011166
:1035200006CE22CC0010232604FE112DB737002032
:1035300083A747629DC3B7370020938787621147EF
:10354000814613060020AD65938505670D6513055B
:10355000056DEFE07FE12326A4FE8327C4FE81E70B
:10356000EFD0BFB401A08327C4FE3E85F240624481
:10357000056182805D7186C6A2C480082326A4FCF2
:103580002324B4FC2322C4FC2320D4FC232EE4FAFD
:10359000232604FE8327C4FC81E7EFD01FB101A0DE
:1035A000B737002083A74762D1C7832784FC232E27
:1035B000F4FC832744FC2320F4FE8327C4FC23224D
:1035C000F4FE032784FC954763C7E704EFF07FBF51
:1035D0002A8789476312F702B737002083A747621B
:1035E0001307C4FD81460326C4FBBA853E85EFE080
:1035F000AFC22326A4FE3DA8B737002083A74762A9
:103600001307C4FD81460146BA853E85EFE0CFC071
:103610002326A4FE05A0B737002083A7476213071F
:10362000C4FD8146032604FCBA853E85EFE0EFDA4F
:103630002326A4FE8327C4FE3E85B640264461614E
:103640008280797106D622D40018232EA4FC232C64
:10365000B4FCB737002083A7C761DC47DC472326CB
:10366000F4FE8327C4FE91073E85EFE00F8F83278A
:10367000C4FED84F85476312F7048327C4FE984FD2
:103680008327C4FDBA978326C4FD032684FDBE8527
:103690000325C4FE5522AA878DC301478146032610
:1036A000C4FD81450325C4FEF1352324A4FE8327F0
:1036B00084FE81E7EFD07F9F01A08327C4FEDC5307
:1036C0000325C4FE82970100B250225445618280D6
:1036D000797106D622D40018232EA4FC930784FE09
:1036E0003E855D282326A4FE832784FEBE85032510
:1036F000C4FE1920E52ADDB7797106D622D4001858
:10370000232EA4FC232CB4FCEFF00F90930784FE2F
:103710003E85D1282326A4FE832784FEBDE7832788
:1037200084FD99EF0327C4FD8327C4FE63EAE70005
:10373000EFF0AF8F8325C4FE0325C4FD193781A8A0
:10374000832784FD81CFB737002083A707629C437E
:1037500093B7170093F7F70F232CF4FCB73700202B
:1037600083A647620327C4FD8327C4FEB307F7403F
:10377000032684FDBE853685EFE07FB6EFF0EF8A45
:10378000AA8791E7EFD02FF519A0EFF00F8A01007B
:10379000B250225445618280797122D60018232EBE
:1037A000A4FCB737002083A7C7619C4393B71700D9
:1037B00093F7F70F3E878327C4FD98C38327C4FD83
:1037C0009C4391EBB737002083A7C761DC479C433C
:1037D0002326F4FE19A0232604FE8327C4FE3E857B
:1037E000325445618280797106D622D40018232E86
:1037F000A4FCEFF0CF982326A4FEB737002083A7C0
:10380000C7620327C4FE6378F7003D2C8327C4FDFD
:10381000054798C329A08327C4FD23A00700B73715
:1038200000200327C4FE23A6E7628327C4FE3E854B
:10383000B250225445618280797106D622D4001894
:10384000232EA4FC232CB4FC232AC4FC2328D4FC60
:10385000232604FE8327C4FD032784FDD8C38327C2
:10386000C4FD0327C4FD98CB032784FD832744FDB3
:1038700063ECE702032744FD832704FD1D8F8327A4
:10388000C4FD9C4F6366F70085472326F4FE81A89C
:10389000B737002003A707628327C4FD9107BE85C1
:1038A0003A85EFD07FE125A8032744FD832704FD57
:1038B000637CF700032784FD832704FD6366F7001C
:1038C00085472326F4FE21A8B737002003A7C76148
:1038D0008327C4FD9107BE853A85EFD0FFDD83279E
:1038E000C4FE3E85B250225445618280397106DEA5
:1038F00022DC80002DA2832704FD63D907029307F1
:1039000004FD91072326F4FE8327C4FE81E7EFD050
:10391000CFF901A08327C4FE94438327C4FED84374
:103920008327C4FE9C47BE853A858296832704FD83
:1039300063C6070E832784FD2324F4FE832784FEB9
:10394000DC4B99C7832784FE91073E85EFD0FFE0CB
:103950009307C4FC3E85413D2322A4FE832704FD3A
:103960002547636EF70A13972700B167938707C44B
:10397000BA979C438287032744FD832784FE9C4F8C
:10398000BA97032744FDBA86032644FEBE85032565
:1039900084FE5D35AA87C1C7832784FEDC530325D7
:1039A00084FE8297832784FED84F85476319F706E4
:1039B000032744FD832784FE9C4FBA970147814625
:1039C0003E868145032584FEEFF0DFBA2320A4FE66
:1039D000832704FEA9E7EFD04FED01A0032744FDA4
:1039E000832784FE98CF832784FE9C4F81E7EFD006
:1039F000CFEB01A0832784FE984F832744FEBA971C
:103A0000832644FE032644FEBE85032584FE2D3511
:103A100039A0032584FEEFD0EF9311A00100B73742
:103A2000002083A74762130704FD81460146BA853B
:103A30003E85EFE0EFABAA87E39F07EA01000100B4
:103A4000F250625421618280797106D622D4001826
:103A500045A8B737002083A7C761DC479C432324D0
:103A6000F4FEB737002083A7C761DC47DC47232279
:103A7000F4FE832744FE91073E85EFD01FCE8327B7
:103A800044FEDC53032544FE8297832744FED84F2F
:103A900085476317F706832744FE9C4F032784FE60
:103AA000BA972320F4FE032704FE832784FE63F8DD
:103AB000E702832744FE032704FED8C3832744FE7E
:103AC000032744FE98CBB737002003A7C76183279D
:103AD00044FE9107BE853A85EFD01FBE15A0014771
:103AE0008146032684FE8145032544FEEFF09FA80E
:103AF000232EA4FC8327C4FD81E7EFD00FDB01A0B8
:103B0000B737002083A7C7619C43A1F7B7370020D0
:103B100083A7C7612326F4FEB737002003A70762F7
:103B2000B737002023AEE760B73700200327C4FE75
:103B300023A0E7620100B250225445618280411106
:103B400006C622C40008EFD00FCDB737002083A7E8
:103B50004762B5E7B737002013858735EFD01FA937
:103B6000B73700201385C736EFD05FA8B7370020DE
:103B7000373700201307873523AEE760B7370020BB
:103B8000373700201307C73623A0E7620146C14537
:103B90002945EFD03FD12A87B737002023A2E7621B
:103BA000B737002083A7476299CBB737002003A718
:103BB0004762AD67938587673A85EFE0EFE3EFD023
:103BC000CFC90100B240224441018280397106DE32
:103BD00022DC80002326A4FC2324B4FC2322C4FC82
:103BE0002320D4FCF957232EF4FC8327C4FC232084
:103BF000F4FE832784FC2322F4FE832744FC232441
:103C0000F4FEB737002083A747621307C4FD81463F
:103C1000032604FCBA853E85EFD03FFC2326A4FE94
:103C20008327C4FE3E85F2506254216182807971FF
:103C300006D622D40018232EA4FC232CB4FC832700
:103C4000C4FD9C432326F4FE8327C4FE63CF0700F4
:103C5000AD6793860768B167138687C6930580337F
:103C6000AD671385C769EF4000050327C4FEB7079A
:103C70000020F98F91CFAD679386876EB167138669
:103C800087C693059033AD671385C769EF40A002DF
:103C90000327C4FEB70700F9FD177D8F832784FD36
:103CA00093968701B7070007F58FD98F2326F4FE77
:103CB0008327C4FD8326C4FE370700C07D17758F98
:103CC00098C38327C4FD0327C4FE98C30100B250E4
:103CD000225445618280011106CE22CC00108D4510
:103CE000B7B70240138587109937B7B702401385DD
:103CF000C710EF00D06D2326A4FE8326C4FE09461C
:103D0000F1679385072037350440912C0100F2407C
:103D1000624405618280011106CE22CC0010232668
:103D2000A4FE8327C4FE91EFAD6793868770B167C9
:103D30001386C7CB93052041AD6713850771EF301C
:103D40009077B7C702400327C4FE1843D8CB0100C1
:103D5000F240624405618280011106CE22CC00103F
:103D60002326A4FE8327C4FE91EFAD679386877058
:103D7000B1671386C7CD9305E042AD671385077120
:103D8000EF307073B7C70240984B8327C4FE98C3C7
:103D90000100F240624405618280397106DE22DC56
:103DA00080002326A4FC232C04FC232E04FC2320C7
:103DB00004FE232204FE232404FE8547232CF4FC66
:103DC00089472320F4FE85472324F4FE232A04FC9C
:103DD000832744FDC19B93E73700232AF4FC032784
:103DE00044FDB70700F1FD177D8FB7070002D98F9B
:103DF000232AF4FC930784FD3E85EF10000193070E
:103E000044FD3E85093F9307C4FE3E85B1378327B5
:103E1000C4FEE183BD8B13F7F70F832744FDE183D5
:103E2000BD8B93F7F70FE310F7FE0325C4FCEF10EB
:103E3000C01A0100F250625421618280011106CE45
:103E400022CC0010B1671385C7C8813FB1671385C5
:103E5000073CD1359307C4FE3E85FD3D8327C4FE54
:103E6000E183BD8B13F7F70F8D47E315F7FEB167BD
:103E7000138587C7EF007079B167138547CAEF10C4
:103E8000A03CB71700203777DC02130707C023AA2E
:103E9000E79A0100F240624405618280011106CE7A
:103EA00022CC00102326A4FE8327C4FE9C4363CFAC
:103EB0000700AD679386C775B167138687CF9305F3
:103EC000B030AD6713850779EF30F05E8327C4FE0D
:103ED00094438327C4FE37070040558F98C30100E1
:103EE000F240624405618280011122CE0010232637
:103EF000A4FE2324B4FE2322C4FE0327C4FE83278A
:103F000084FE8A07BA979C4313F7F78F832744FEF2
:103F1000A20793F707705D8F8326C4FE832784FE74
:103F20008A07B69798C301007244056182804111E7
:103F300006C622C40008B7B7024013850712B93F6E
:103F40000D469D453785044045370D46A1453785CB
:103F50000440593F0100B2402244410182800111D6
:103F600006CE22CC00102326A4FE2324B4FEB28762
:103F70002320D4FEA303F4FE834774FE91EFAD67C4
:103F80009386C77DB1671386C7D093057005B16767
:103F900013858780EF303052834774FE832604FEFA
:103FA000032684FEBE850325C4FE5926AA873E85C6
:103FB000F240624405618280557106D722D500190E
:103FC000232EA4F44CC010C454C418C85CC8232CBD
:103FD0000401232E1401232604FE232404FE23229D
:103FE00004F6930784F61307C0073A8681453E8599
:103FF000EFC0AFDE93070402232CF4F4832784F58B
:1040000091172322F4FE032744FE130644F691671A
:1040100093860704BA850325C4F57D2D2326A4FEC7
:104020000327C4FE930744F6BA853E85B9262324A8
:10403000A4FE832784FE3E85BA502A54696182809B
:10404000797106D622D40018232EA4FC232CB4FCAC
:10405000B2872328D4FCA30BF4FC232604FE2326DA
:1040600004FEA9A8832784FD9C4385073E87930708
:10407000F00763FDE700832784FD9C43BE8503258D
:10408000C4FDE52C832784FD23A00700832784FD3E
:104090009C433E878327C4FDBA97034774FD238062
:1040A000E700832784FD9C4313871700832784FD43
:1040B00098C38327C4FE85072326F4FE0327C4FE86
:1040C000832704FDE340F7FA01000100B2502254B7
:1040D00045618280011106CE22CC00102326A4FE69
:1040E0002324B4FE2322C4FE832784FE99E3FD57D4
:1040F0002DA00327C4FE85476309F7000327C4FEEC
:1041000089476304F700FD5709A8832744FEBE854D
:10411000032584FE9D24832744FE3E85F2406244AD
:1041200005618280011106CE22CC00102326A4FE58
:104130002324B4FE2322C4FE8327C4FE99C3FD5763
:1041400001A8832744FEBE85032584FED124AA87C7
:104150003E85F240624405618280011122CE00104A
:104160002326A4FEAE87A305F4FE8347B4FE99CBB5
:104170008327C4FE984FB70708005D8F8327C4FECE
:1041800098CF19A88327C4FE984FB707F8FFFD17EB
:104190007D8F8327C4FE98CF010072440561828021
:1041A000011122CE00102326A4FEAE87A305F4FE43
:1041B0008347B4FE99CB8327C4FE984FB70704000A
:1041C0005D8F8327C4FE98CF19A88327C4FE984F1C
:1041D000B707FCFFFD177D8F8327C4FE98CF010032
:1041E0007244056182805D7186C6A2C48008232E58
:1041F000A4FA232CB4FA232AC4FA2328D4FA832756
:10420000C4FB91EFB16793864783B1671386473C40
:104210009305600DB16713850784EF30D02983279C
:10422000C4FB03C74700B737002093870763238287
:10423000E7008327C4FB9843B737002093870763C1
:1042400098C3B73700209387076383C747003E872B
:1042500089476319F704930744FC3E85EF10F0404B
:10426000832784FB2322F4FCB7370020938707635E
:104270009C43130744FC032644FBBA853E85EF109C
:10428000406DB7370020938707639C4385453E8583
:10429000E935B7370020938707639C4385453E8502
:1042A000013701000100B6402644616182807971C6
:1042B00006D622D40018232EA4FC232CB4FCB287EB
:1042C000A30BF4FC232604FEB73700209387076373
:1042D00083C747003E8789476311F704834774FD0E
:1042E00091CFB7370020938707639C43032684FD53
:1042F0008325C4FD3E85EF10D06325A0B73700208D
:10430000938707639C43032684FD8325C4FD3E8574
:10431000EF1090692326A4FE29A085472326F4FEEA
:1043200001008327C4FE3E85B2502254456182803D
:10433000797106D622D40018232EA4FCAE87232A36
:10434000C4FC2328D4FCA30DF4FC8327C4FD232440
:10435000F4FE8347B4FD2306F4FE930784FE8146F2
:10436000032604FD832544FD3E85EFF0DFE781470A
:104370003E85B250225445618280011106CE22CC86
:1043800000102326A4FE2324B4FE8327C4FE91EF4D
:10439000B16793864786B1671386C7D193053012FC
:1043A000B16713850787EF301011832584FE03253D
:1043B000C4FE3920AA873E85F240624405618280AE
:1043C000797106D622D40018232EA4FC232CB4FC29
:1043D000A30704FE832784FD8DC78327C4FD95C3EF
:1043E0008547A307F4FE8347F4FE81CF0546832566
:1043F00084FD0325C4FDEFF09FEBAA8799C3232C0E
:1044000004FC832784FD3E85B2502254456182809E
:10441000797106D622D40018232EA4FC232CB4FCD8
:104420008327C4FD91EFB16793864786B1671386F2
:1044300087D293058014B16713850787EF30B007E3
:10444000232604FE232604FE95A08327C4FE03270B
:10445000C4FDBA973E854520AA8799C3FD5779A028
:104460008327C4FE0327C4FDBA9703C70700B547D7
:10447000630CF7008327C4FE0327C4FDBA9703C764
:104480000700A947631FF7008327C4FE9DE7832722
:10449000C4FE0327C4FDBA9723800700FD572326D7
:1044A000F4FE8327C4FE85072326F4FE8327C4FE7B
:1044B000032784FDE3EBE7F811A001008327C4FE86
:1044C000032784FD631AF7008327C4FE0327C4FD76
:1044D000BA972380070009A88327C4FE850703270E
:1044E000C4FDBA97238007008327C4FE3E85B250DF
:1044F000225445618280011106CE22CC0010232671
:10450000A4FE014685450325C4FEEFF05FDAAA87C5
:1045100099C3854711A081473E85F24062440561F9
:1045200082805D71A2C680082326A4FC2324B4FCEB
:104530002322C4FC2320D4FCBA87A30FF4FA232E31
:1045400004FC8327C4FC232CF4FC832784FD1387FD
:104550001700232CE4FC23800700832744FCDDCBD9
:10456000832784FC9C432326F4FE8327C4FED9EFD3
:10457000832784FD130700032380E7008327C4FDFE
:104580008507232EF4FC8327C4FD99A20327C4FECC
:10459000832704FCB347F7022328F4FC032704FD18
:1045A000832704FCB307F7020327C4FEB307F740D1
:1045B0002324F4FE832784FE63DF0700832784FE21
:1045C0002320F4FE13070003832704FEB307F740FC
:1045D0002324F4FE39A0832784FE93870703232432
:1045E000F4FE832704FD2326F4FE832784FD13872E
:1045F0001700232CE4FC032784FE620761872380D5
:10460000E7008327C4FD8507232EF4FC8327C4FE1F
:10461000B5FF6DA8832784FC9C432322F4FE8327E7
:1046200044FED5E3832784FD130700032380E700BE
:104630008327C4FD8507232EF4FC8327C4FD49A8E6
:10464000832704FC032744FEB357F702232AF4FC14
:10465000032704FC832744FDB307F702032744FE26
:10466000B307F7402320F4FE032704FEA54763E9C0
:10467000E700832704FE938707032320F4FE39A86D
:104680008347F4FB81C79307100419A09307100612
:10469000032704FEBA97D9172320F4FE832744FD8D
:1046A0002322F4FE832784FD13871700232CE4FCC8
:1046B000032704FE620761872380E7008327C4FD88
:1046C0008507232EF4FC832744FEBDFB8327C4FD0E
:1046D0003E85364461618280197186DEA2DC00016C
:1046E0002326A4F82324B4F82322C4F82320D4F8E2
:1046F000232404FE232204FE232004FA230904FCBD
:10470000232C04F88327C4F82326F4FE45A10327AD
:10471000C4FC930750026302F7028327C4FC13977B
:1047200087016187930704FA032804F885463A86CF
:10473000BE85032544F80298ADA18547A309F4FC82
:10474000232E04FC232004FEB9A88327C4FE85077A
:104750002326F4FE8327C4FE838707002326F4FC68
:104760000327C4FC9307F00263D7E7020327C4FCC6
:104770009307900363C1E7020327C4FDBA878A0742
:10478000BA9786073E878327C4FCBA97938707FDAD
:10479000232EF4FC09A88327C4FEFD172326F4FE6C
:1047A00085472320F4FE832704FEC5D39947232C95
:1047B000F4FC8327C4FE85072326F4FE8327C4FE6A
:1047C000038707009307E0026319F706232C04FC14
:1047D000232004FEB9A88327C4FE85072326F4FE00
:1047E0008327C4FE838707002326F4FC0327C4FC29
:1047F0009307F00263D7E7020327C4FC93079003F3
:1048000063C1E702032784FDBA878A07BA97860740
:104810003E878327C4FCBA97938707FD232CF4FCBB
:1048200009A88327C4FEFD172326F4FE854723200D
:10483000F4FE832704FEC5D331A08327C4FEFD17F1
:104840002326F4FE8327C4FE85072326F4FE832750
:10485000C4FE838707002326F4FC0327C4FC9307C8
:1048600040066308F7060327C4FC9307900663021B
:10487000F7060327C4FC93076006630CF7040327BD
:10488000C4FC930760046306F7040327C4FC930782
:1048900080076300F7040327C4FC93078005630ABD
:1048A000F7020327C4FC9307F0066304F70203270B
:1048B000C4FC93072006630EF7000327C4FC93078C
:1048C00000076308F7000327C4FC9307500763162B
:1048D000F71E0327C4FC930740066308F70003276D
:1048E000C4FC93079006631FF702832784F813879D
:1048F00047002324E4F89C43232EF4F8034734FDB7
:104900009305C4F9930744FAA94605463E85EFF09E
:104910005FC12322A4FE130744FA832744FEBA97FB
:104920002324F4FE0327C4FC930780056308F700E3
:104930000327C4FC930780076317F7040327C4FC0D
:10494000930780076314F700A30904FC832784F806
:10495000138747002324E4F89C43232CF4F80347EF
:1049600034FD930584F9930744FAC14601463E8518
:10497000EFF03FBB2322A4FE130744FA832744FE33
:10498000BA972324F4FE0327C4FC9307F0066304BC
:10499000F7020327C4FC93072006630EF7000327E2
:1049A000C4FC930700076308F7000327C4FC9307C0
:1049B00050076315F70A832784F8138747002324D9
:1049C000E4F89C43232CF4F80327C4FC9307500716
:1049D000630CF7040327C4FC9307500763CAE7047A
:1049E0000327C4FC93070007630CF7020327C4FCEA
:1049F0009307000763CEE7020327C4FC9307200652
:104A0000630CF7000327C4FC9307F0066312F70258
:104A1000A1472309F4FC31A889472309F4FC11A814
:104A2000C1472309F4FC31A0A9472309F4FC11A0D4
:104A30000100834624FD034734FD930584F9930761
:104A400044FA01463E85EFF0DFAD2322A4FE1307B2
:104A500044FA832744FEBA972324F4FE832744FEB6
:104A60000327C4FDB307F7403E87930704FA0328E2
:104A700004F8BA8613060002BE85032544F802989E
:104A8000832784FE638F07101DA0832784FE13876E
:104A9000F7FF2324E4FE03870700930704FA0328A3
:104AA00004F885463A86BE85032544F80298832794
:104AB00084FE83870700F1FBEDA00327C4FC930766
:104AC0003006631DF702832784F8138747002324E9
:104AD000E4F89C43E207E1872324F4FC832784FC69
:104AE000139787016187930704FA032804F8854622
:104AF0003A86BE85032544F8029865A00327C4FCC6
:104B0000930730076310F708832784F8138747005B
:104B10002324E4F89C43232AF4FC832744FDD1C3D7
:104B2000032544FDEF30E034AA872322F4FE8327D7
:104B300044FE0327C4FDB307F7403E87930704FAFA
:104B4000032804F8BA8613060002BE85032544F83C
:104B500002981DA0832744FD13871700232AE4FC35
:104B600003870700930704FA032804F885463A866A
:104B7000BE85032544F80298832744FD83870700F8
:104B8000F1FB05A08327C4FC139787016187930776
:104B900004FA032804F885463A86BE85032544F8BE
:104BA00002988327C4FE85072326F4FE8327C4FECC
:104BB000838707002326F4FC8327C4FCE39907B40A
:104BC000832704FA3E85F650665409618280797124
:104BD00006D622D40018232EA4FC8327C4FD9C43B0
:104BE0002322F4FE832744FE63CF0700B167938638
:104BF0000792B167138687D39305900CB16713852D
:104C00004797EF30400B0327C4FDB77702419387E6
:104C1000870A630BF7040327C4FDB7770241938724
:104C2000870A63EAE7040327C4FDB7B70240938706
:104C30004711630FF7020327C4FDB7B702409387FC
:104C4000471163EAE7020327C4FDB7B70240938721
:104C5000070C630BF7000327C4FDB7B70240938727
:104C6000870F6307F70001A889472326F4FE01A8F0
:104C7000232604FE29A085472326F4FE010083276E
:104C800044FEE1839D8B19476384E70419476367FA
:104C9000F7040D476388E7020D476361F704054792
:104CA0006386E70009476389E7000DA80325C4FE72
:104CB00075282324A4FE35A00325C4FE4124232403
:104CC000A4FE05A00325C4FECD212324A4FE11A823
:104CD0000325C4FE852F2324A4FE21A0232404FE43
:104CE0000100832744FEBD8B95C3832744FE8D833B
:104CF000858B13871700832784FE3307F7028327EA
:104D000044FE9D8B8507B357F70219A0832784FEC5
:104D10003E85B250225445618280411106C622C4AC
:104D20000008B7C7024003A70710B7070001F98FB3
:104D300085CBB737002083A7876391EFB167938650
:104D40008799B167138687D493051018B1671385C7
:104D50004797EF205076B737002083A7876311A0CD
:104D600081473E85B240224441018280797106D656
:104D700022D40018232EA4FC4D372324A4FE23267E
:104D800004FE832784FEB1CF0327C4FD8947630057
:104D9000F7020327C4FD894763E7E7048327C4FDBF
:104DA0008DCB0327C4FD8547630CF7002DA8B7C73B
:104DB000024083A74710C1839D8B2326F4FE2DA0BC
:104DC000B7C7024083A74710A1839D8B2326F4FE1B
:104DD00021A8B7C7024083A747109D8B2326F4FE66
:104DE00021A0010011A001008327C4FE89CB8327E5
:104DF000C4FEFD17032784FEB357F70011A08147B7
:104E00003E85B250225445618280797106D622D403
:104E10000018232EA4FC8327C4FD91EFB16793866D
:104E2000C795B1671386C7D59305D01AB1671385A7
:104E30004797EF20506859202326A4FE8327C4FEFD
:104E400081C78327C4FEB5A08327C4FDDC4313F7C5
:104E500077008327C4FD9C47A20793F70770B366CA
:104E6000F7008327C4FDDC4713970701B707070046
:104E70007D8FB7C70240558F23A2E7208327C4FD4B
:104E8000984BB7C70240058B23A4E7208327C4FDB6
:104E90009843B7C702401367170023A0E72001001B
:104EA000B7C7024003A70720B7070001F98FEDDB62
:104EB00081473E85B250225445618280011122CE45
:104EC0000010B7C7024083A707202326F4FE03275C
:104ED000C4FEB7070002F98F89C785679387578398
:104EE00031A80327C4FEB7078000F98F99C389470B
:104EF00031A0B7C7024023A0072081473E857244F6
:104F000005618280411122C60008B7C7024003A78D
:104F10000720B7070001F98F89CFB7C7024083A7E1
:104F20008720858B31671307C73C8A07BA979C4354
:104F300011A081473E85324441018280797106D6B5
:104F400022D40018232EA4FC753F2324A4FE23267C
:104F500004FE832784FEB1CF0327C4FD8947630085
:104F6000F7020327C4FD894763E7E7048327C4FDED
:104F70008DCB0327C4FD8547630CF7002DA8B7C769
:104F8000024083A74720C1839D8B2326F4FE2DA0DA
:104F9000B7C7024083A74720A1839D8B2326F4FE39
:104FA00021A8B7C7024083A747209D8B2326F4FE84
:104FB00021A0010011A001008327C4FE89CB832713
:104FC000C4FEFD17032784FEB357F70011A08147E5
:104FD0003E85B250225445618280797106D622D432
:104FE0000018232EA4FC8327C4FD91EFB16793869C
:104FF000C795B1671386C7D693052021B16713857E
:105000004797EF20504B05222326A4FE8327C4FE9A
:1050100081C78327C4FE19A28327C4FDDC4313F78D
:1050200077008327C4FD9C47A20793F70770B366F8
:10503000F7008327C4FDDC4713970701B707070074
:105040007D8FB7C70240558F23A2E7308327C4FD69
:10505000984BB7C702400D8B23A4E7308327C4FDCC
:10506000DC4BC9C78327C4FDDC4B9C47A20793F6E2
:1050700007708327C4FDDC4BDC4313F73700B7C749
:105080000240558F23A6E7308327C4FDDC4B9843AD
:1050900093070010631AF7028327C4FDDC4B83C714
:1050A000C700139787009167938707F0B376F700DF
:1050B0008327C4FDDC4B83C7D70013F7F707B7C7B7
:1050C0000240558F23ACE7308327C4FDD84BB7C7C8
:1050D0000240184323A0E730B7C7024003A70730B8
:1050E000B7070004F98F99C385470DA8B7C70240D9
:1050F00003A707308327C4FD9C435D8FB7C70240D9
:105100001367171023A0E7300100B7C7024003A7B9
:105110000730B7070001F98FEDDB81473E85B250BC
:10512000225445618280011122CE0010B7C702408F
:1051300083A707302326F4FE0327C4FEB707000227
:10514000F98F89C785679387578305A00327C4FE16
:10515000B7078000F98F99C3894701A8B7C70240F4
:105160003707000423A0E73081473E85724405617C
:105170008280411122C60008B7C7024003A707304A
:10518000B7070001F98F89CFB7C7024083A78730DF
:105190008D8B31671307C7D78A07BA979C4311A035
:1051A00081473E85324441018280797106D622D4FE
:1051B0000018232EA4FC753F2324A4FE232604FEFE
:1051C000832784FEB1CF0327C4FD89476300F7021C
:1051D0000327C4FD894763E7E7048327C4FD8DCB1C
:1051E0000327C4FD8547630CF7002DA8B7C702400D
:1051F00083A74730C1839D8B2326F4FE2DA0B7C71C
:10520000024083A74730A1839D8B2326F4FE21A86B
:10521000B7C7024083A747309D8B2326F4FE21A009
:10522000010011A001008327C4FE89CB8327C4FE9F
:10523000FD17032784FEB357F70011A081473E8571
:10524000B250225445618280797106D622D400186A
:10525000232EA4FC8327C4FD91EFB1679386C795E5
:10526000B1671386C7D89305D029B16713854797CF
:10527000EF207024B1222326A4FE8327C4FE81C719
:105280008327C4FE0DAA8327C4FDDC4313F77700F0
:105290008327C4FD9C47A20793F70770B366F70006
:1052A0008327C4FDDC4713970701B70707007D8FED
:1052B000B7C70240558F23A2E7508327C4FD984B00
:1052C000B7C702400D8B23A4E7508327C4FDDC4BF6
:1052D000D9C38327C4FDDC4B83C7C700139787005E
:1052E0008967938707F07D8F8327C4FDDC4B9C473C
:1052F0008D8BB366F7008327C4FDDC4BDC4313972B
:105300000701C1677D8FB7C70240558F23A6E750BD
:105310008327C4FDDC4B984393070010631BF70001
:105320008327C4FDDC4B03C7D700B7C7024023AABD
:10533000E7508327C4FDD84BB7C70240184323A0CA
:10534000E750B7C7024003A70750B7070004F98F1B
:1053500099C385478DA0B7C7024003A7075083278D
:10536000C4FD83C7070093E7170093F7F70FBE86C6
:10537000B7C70240558F23A0E7500100B7C70240CE
:1053800003A70750B7070001F98FEDDB8327C4FDA2
:10539000DC4B8DC38327C4FDDC4B9843930700305F
:1053A000631AF7000100B7C7024083A7075093F7BD
:1053B0000740F5DB81473E85B2502254456182802B
:1053C000011122CE0010B7C7024083A70750232641
:1053D000F4FE0327C4FEB7070002F98F89C785676B
:1053E0009387578305A00327C4FEB7078000F98F72
:1053F00099C3894701A8B7C702403707000423A013
:10540000E75081473E85724405618280411122C682
:105410000008B7C7024003A70750B7070001F98F7C
:1054200089CFB7C7024083A787508D8B3167130799
:10543000C7D98A07BA979C4311A081473E85324459
:1054400041018280797106D622D40018232EA4FC53
:10545000753F2324A4FE232604FE832784FE95CBD8
:105460008327C4FD99CF0327C4FD85476315F70241
:10547000B7C7024083A74750A1839D8B2326F4FE24
:1054800021A8B7C7024083A747509D8B2326F4FE6F
:1054900021A0010011A001008327C4FE89CB83272E
:1054A000C4FEFD17032784FEB357F70011A0814700
:1054B0003E85B250225445618280011106CE22CC35
:1054C00000102326A4FE8327C4FE9C4363CF07005D
:1054D000B1679386479AB167138687E79305B03023
:1054E000B1671385879DEF20007D8327C4FE944319
:1054F0008327C4FE37070040558F98C30100F24050
:10550000624405618280011106CE22CC0010232660
:10551000A4FE8327C4FE9C4363CF0700B167938634
:10552000479AB1671386C7E893057031B167138551
:10553000879DEF2040788327C4FE94438327C4FED1
:10554000370700C07D17758F98C30100F240624491
:1055500005618280011122CE00102326A4FE0327BC
:10556000C4FE930700F86314F70085470DA80327CE
:10557000C4FEFD4763D4E700854715A0B71704E0D4
:1055800098438327C4FE8546B397F600BE86B717B7
:1055900004E0558F98C3B71704E09C4381473E85CC
:1055A000724405618280011122CE00102326A4FEE0
:1055B0008327C4FE9C4713E727008327C4FE98C7B0
:1055C0008327C4FE9C4713F7D7FF8327C4FE98C7E1
:1055D0000100724405618280011122CE0010232651
:1055E000A4FEAE87A305F4FE0347B4FE8327C4FEE2
:1055F000D8CF0100724405618280797122D60018EB
:10560000232EA4FC8327C4FD9C4F2326F4FE0327EE
:10561000C4FE856793870780F98F85E30327C4FE5F
:10562000856793870780F98F99EB8327C4FEC18B29
:1056300099E78327C4FE898B99C3854711A08147C9
:10564000A305F4FE8347B4FE858BA305F4FE8347D0
:10565000B4FE99CB8327C4FDDC4F93F7F70F93F784
:10566000F70793F7F70F31A08327C4FDDC4F93F7BB
:10567000F70F3E85325445618280797106D622D477
:105680000018232EA4FC232604FE15A0B16713875F
:10569000C7DA8327C4FE8A07BA979C430327C4FD51
:1056A000630DF7008327C4FE85072326F4FE032736
:1056B000C4FE8D47E3FCE7FC11A001000327C4FEF4
:1056C0008D4763FFE700B167938647A2B1671386F2
:1056D000C7DD93051008B1671385C7A4EF20A05D4F
:1056E0008327C4FE3E85B250225445618280797181
:1056F00006D622D40018232EA4FC232CB4FC832726
:1057000084FD91EFB167938607A7B167138607DF22
:1057100093058008B1671385C7A4EF20C05983277C
:1057200084FD83D72702139707014183832784FDD4
:1057300083D70702C207C18363F7E702832784FD8B
:1057400083D70702C207C1833E87832784FDDC4FCE
:10575000BA97032784FD0357270242074183998F95
:105760002326F4FE15A0832784FD83D70702C207F2
:10577000C1833E87832784FD83D72702C207C18365
:10578000B307F7402326F4FE8327C4FE3E85B250BC
:10579000225445618280797106D622D40018232EC6
:1057A000A4FC232CB4FC832784FD91EFB16793867E
:1057B00007A7B167138687E193058009B167138551
:1057C000C7A4EF20404F832584FD0325C4FDEFF0DF
:1057D0001FF22A87832784FDDC4FFD176316F7002D
:1057E0008547A307F4FE19A0A30704FE8347F4FE30
:1057F0003E85B250225445618280797106D622D40A
:105800000018232EA4FC232CB4FC232AC4FC8327D9
:1058100084FD91EFB167938687A7B1671386C7E3CD
:105820009305700AB1671385C7A4EF20C0482326EB
:1058300004FE0DA0032784FD8327C4FEBA9783C707
:1058400007003E878327C4FDD8CF8327C4FE850782
:105850002326F4FE0327C4FE832744FDE36CF7FCF4
:1058600001000100B250225445618280797106D650
:1058700022D40018232EA4FC232CB4FC232AC4FC1D
:10588000832784FD91EFB167938687A7B16713865D
:1058900047E59305400BB1671385C7A4EF20A041EE
:1058A0008327C4FD9C4F2324F4FE032784FE8567D1
:1058B00093870780F98F85E3032784FE85679387A5
:1058C0000780F98F99EB832784FEC18B99E78327A3
:1058D00084FE898B99C3854711A08147A303F4FEF9
:1058E000834774FE858BA303F4FE232604FEB1A038
:1058F000834774FE95C38327C4FDDC4F13F7F70F6E
:10590000832684FD8327C4FEB6971377F7071377A2
:10591000F70F2380E70029A88327C4FDD44F03276E
:1059200084FD8327C4FEBA9713F7F60F2380E700A0
:105930008327C4FE85072326F4FE0327C4FE83279E
:1059400044FDE367F7FA01000100B25022544561BB
:105950008280397106DE22DC80002326A4FC232409
:10596000B4FC2322C4FC832784FC91EFB1679386A7
:1059700007A8B1671386C7E69305000DB1671385C5
:10598000C7A4EF204033832784FC9C4391EFB16789
:10599000938687A8B1671386C7E69305100DB16794
:1059A0001385C7A4EF202031832784FC03C7470158
:1059B000A14763FFE700B167938607AAB167138623
:1059C000C7E69305300DB1671385C7A4EF20A02E5D
:1059D000832784FC03C75701A14763FFE700B16732
:1059E000938607AEB1671386C7E69305400DB1678E
:1059F0001385C7A4EF20202C832784FC9C43232CF1
:105A0000F4FC232204FE231504FE91472320F4FE18
:105A1000E9A8832784FC9843832704FEB307F70291
:105A2000032744FCB357F7022314F4FE835784FE84
:105A300081E785472314F4FE035784FE832704FE81
:105A4000B307F702032744FCB357F7022328F4FCFB
:105A5000832784FC9C43032704FDB307F740232ED0
:105A6000F4FC832784FC9843835784FE8507BE8615
:105A7000832704FEB387F602832644FCB3D7F602DD
:105A8000B307F7400327C4FD63FAE702832784FCCA
:105A90009843835784FE8507BE86832704FEB38719
:105AA000F602832644FCB3D7F602B307F740232E51
:105AB000F4FC835784FE85072314F4FE0327C4FDFA
:105AC000832784FD63EEE7008327C4FD232CF4FCC9
:105AD000832704FE2322F4FE835784FE2315F4FE5D
